{"abi":[{"type":"constructor","inputs":[],"stateMutability":"nonpayable"},{"type":"function","name":"BURN_ACTOR","inputs":[],"outputs":[{"name":"","type":"address","internalType":"address"}],"stateMutability":"view"},{"type":"function","name":"MAX_CAPABILITIES","inputs":[],"outputs":[{"name":"","type":"uint256","internalType":"uint256"}],"stateMutability":"view"},{"type":"function","name":"MAX_CAPABILITY_KEY_LENGTH","inputs":[],"outputs":[{"name":"","type":"uint256","internalType":"uint256"}],"stateMutability":"view"},{"type":"function","name":"MAX_CAPABILITY_VALUE_LENGTH","inputs":[],"outputs":[{"name":"","type":"uint256","internalType":"uint256"}],"stateMutability":"view"},{"type":"function","name":"REGISTRATION_FEE","inputs":[],"outputs":[{"name":"","type":"uint256","internalType":"uint256"}],"stateMutability":"view"},{"type":"function","name":"UPGRADE_INTERFACE_VERSION","inputs":[],"outputs":[{"name":"","type":"string","internalType":"string"}],"stateMutability":"view"},{"type":"function","name":"VERSION","inputs":[],"outputs":[{"name":"","type":"string","internalType":"string"}],"stateMutability":"view"},{"type":"function","name":"activeProductTypeProviderCount","inputs":[{"name":"productType","type":"uint8","internalType":"enum ServiceProviderRegistryStorage.ProductType"}],"outputs":[{"name":"count","type":"uint256","internalType":"uint256"}],"stateMutability":"view"},{"type":"function","name":"activeProviderCount","inputs":[],"outputs":[{"name":"","type":"uint256","internalType":"uint256"}],"stateMutability":"view"},{"type":"function","name":"addProduct","inputs":[{"name":"productType","type":"uint8","internalType":"enum ServiceProviderRegistryStorage.ProductType"},{"name":"productData","type":"bytes","internalType":"bytes"},{"name":"capabilityKeys","type":"string[]","internalType":"string[]"},{"name":"capabilityValues","type":"string[]","internalType":"string[]"}],"outputs":[],"stateMutability":"nonpayable"},{"type":"function","name":"addressToProviderId","inputs":[{"name":"providerAddress","type":"address","internalType":"address"}],"outputs":[{"name":"providerId","type":"uint256","internalType":"uint256"}],"stateMutability":"view"},{"type":"function","name":"decodePDPOffering","inputs":[{"name":"data","type":"bytes","internalType":"bytes"}],"outputs":[{"name":"","type":"tuple","internalType":"struct ServiceProviderRegistryStorage.PDPOffering","components":[{"name":"serviceURL","type":"string","internalType":"string"},{"name":"minPieceSizeInBytes","type":"uint256","internalType":"uint256"},{"name":"maxPieceSizeInBytes","type":"uint256","internalType":"uint256"},{"name":"ipniPiece","type":"bool","internalType":"bool"},{"name":"ipniIpfs","type":"bool","internalType":"bool"},{"name":"storagePricePerTibPerMonth","type":"uint256","internalType":"uint256"},{"name":"minProvingPeriodInEpochs","type":"uint256","internalType":"uint256"},{"name":"location","type":"string","internalType":"string"},{"name":"paymentTokenAddress","type":"address","internalType":"contract IERC20"}]}],"stateMutability":"pure"},{"type":"function","name":"eip712Domain","inputs":[],"outputs":[{"name":"fields","type":"bytes1","internalType":"bytes1"},{"name":"name","type":"string","internalType":"string"},{"name":"version","type":"string","internalType":"string"},{"name":"chainId","type":"uint256","internalType":"uint256"},{"name":"verifyingContract","type":"address","internalType":"address"},{"name":"salt","type":"bytes32","internalType":"bytes32"},{"name":"extensions","type":"uint256[]","internalType":"uint256[]"}],"stateMutability":"view"},{"type":"function","name":"encodePDPOffering","inputs":[{"name":"pdpOffering","type":"tuple","internalType":"struct ServiceProviderRegistryStorage.PDPOffering","components":[{"name":"serviceURL","type":"string","internalType":"string"},{"name":"minPieceSizeInBytes","type":"uint256","internalType":"uint256"},{"name":"maxPieceSizeInBytes","type":"uint256","internalType":"uint256"},{"name":"ipniPiece","type":"bool","internalType":"bool"},{"name":"ipniIpfs","type":"bool","internalType":"bool"},{"name":"storagePricePerTibPerMonth","type":"uint256","internalType":"uint256"},{"name":"minProvingPeriodInEpochs","type":"uint256","internalType":"uint256"},{"name":"location","type":"string","internalType":"string"},{"name":"paymentTokenAddress","type":"address","internalType":"contract IERC20"}]}],"outputs":[{"name":"","type":"bytes","internalType":"bytes"}],"stateMutability":"pure"},{"type":"function","name":"getActiveProvidersByProductType","inputs":[{"name":"productType","type":"uint8","internalType":"enum ServiceProviderRegistryStorage.ProductType"},{"name":"offset","type":"uint256","internalType":"uint256"},{"name":"limit","type":"uint256","internalType":"uint256"}],"outputs":[{"name":"result","type":"tuple","internalType":"struct ServiceProviderRegistryStorage.PaginatedProviders","components":[{"name":"providers","type":"tuple[]","internalType":"struct ServiceProviderRegistryStorage.ProviderWithProduct[]","components":[{"name":"providerId","type":"uint256","internalType":"uint256"},{"name":"providerInfo","type":"tuple","internalType":"struct ServiceProviderRegistryStorage.ServiceProviderInfo","components":[{"name":"beneficiary","type":"address","internalType":"address"},{"name":"name","type":"string","internalType":"string"},{"name":"description","type":"string","internalType":"string"},{"name":"isActive","type":"bool","internalType":"bool"}]},{"name":"product","type":"tuple","internalType":"struct ServiceProviderRegistryStorage.ServiceProduct","components":[{"name":"productType","type":"uint8","internalType":"enum ServiceProviderRegistryStorage.ProductType"},{"name":"productData","type":"bytes","internalType":"bytes"},{"name":"capabilityKeys","type":"string[]","internalType":"string[]"},{"name":"isActive","type":"bool","internalType":"bool"}]}]},{"name":"hasMore","type":"bool","internalType":"bool"}]}],"stateMutability":"view"},{"type":"function","name":"getAllActiveProviders","inputs":[{"name":"offset","type":"uint256","internalType":"uint256"},{"name":"limit","type":"uint256","internalType":"uint256"}],"outputs":[{"name":"providerIds","type":"uint256[]","internalType":"uint256[]"},{"name":"hasMore","type":"bool","internalType":"bool"}],"stateMutability":"view"},{"type":"function","name":"getNextProviderId","inputs":[],"outputs":[{"name":"","type":"uint256","internalType":"uint256"}],"stateMutability":"view"},{"type":"function","name":"getPDPService","inputs":[{"name":"providerId","type":"uint256","internalType":"uint256"}],"outputs":[{"name":"pdpOffering","type":"tuple","internalType":"struct ServiceProviderRegistryStorage.PDPOffering","components":[{"name":"serviceURL","type":"string","internalType":"string"},{"name":"minPieceSizeInBytes","type":"uint256","internalType":"uint256"},{"name":"maxPieceSizeInBytes","type":"uint256","internalType":"uint256"},{"name":"ipniPiece","type":"bool","internalType":"bool"},{"name":"ipniIpfs","type":"bool","internalType":"bool"},{"name":"storagePricePerTibPerMonth","type":"uint256","internalType":"uint256"},{"name":"minProvingPeriodInEpochs","type":"uint256","internalType":"uint256"},{"name":"location","type":"string","internalType":"string"},{"name":"paymentTokenAddress","type":"address","internalType":"contract IERC20"}]},{"name":"capabilityKeys","type":"string[]","internalType":"string[]"},{"name":"isActive","type":"bool","internalType":"bool"}],"stateMutability":"view"},{"type":"function","name":"getProduct","inputs":[{"name":"providerId","type":"uint256","internalType":"uint256"},{"name":"productType","type":"uint8","internalType":"enum ServiceProviderRegistryStorage.ProductType"}],"outputs":[{"name":"productData","type":"bytes","internalType":"bytes"},{"name":"capabilityKeys","type":"string[]","internalType":"string[]"},{"name":"isActive","type":"bool","internalType":"bool"}],"stateMutability":"view"},{"type":"function","name":"getProductCapabilities","inputs":[{"name":"providerId","type":"uint256","internalType":"uint256"},{"name":"productType","type":"uint8","internalType":"enum ServiceProviderRegistryStorage.ProductType"},{"name":"keys","type":"string[]","internalType":"string[]"}],"outputs":[{"name":"exists","type":"bool[]","internalType":"bool[]"},{"name":"values","type":"string[]","internalType":"string[]"}],"stateMutability":"view"},{"type":"function","name":"getProductCapability","inputs":[{"name":"providerId","type":"uint256","internalType":"uint256"},{"name":"productType","type":"uint8","internalType":"enum ServiceProviderRegistryStorage.ProductType"},{"name":"key","type":"string","internalType":"string"}],"outputs":[{"name":"exists","type":"bool","internalType":"bool"},{"name":"value","type":"string","internalType":"string"}],"stateMutability":"view"},{"type":"function","name":"getProvider","inputs":[{"name":"providerId","type":"uint256","internalType":"uint256"}],"outputs":[{"name":"info","type":"tuple","internalType":"struct ServiceProviderRegistryStorage.ServiceProviderInfo","components":[{"name":"beneficiary","type":"address","internalType":"address"},{"name":"name","type":"string","internalType":"string"},{"name":"description","type":"string","internalType":"string"},{"name":"isActive","type":"bool","internalType":"bool"}]}],"stateMutability":"view"},{"type":"function","name":"getProviderByAddress","inputs":[{"name":"providerAddress","type":"address","internalType":"address"}],"outputs":[{"name":"info","type":"tuple","internalType":"struct ServiceProviderRegistryStorage.ServiceProviderInfo","components":[{"name":"beneficiary","type":"address","internalType":"address"},{"name":"name","type":"string","internalType":"string"},{"name":"description","type":"string","internalType":"string"},{"name":"isActive","type":"bool","internalType":"bool"}]}],"stateMutability":"view"},{"type":"function","name":"getProviderCount","inputs":[],"outputs":[{"name":"","type":"uint256","internalType":"uint256"}],"stateMutability":"view"},{"type":"function","name":"getProviderIdByAddress","inputs":[{"name":"providerAddress","type":"address","internalType":"address"}],"outputs":[{"name":"","type":"uint256","internalType":"uint256"}],"stateMutability":"view"},{"type":"function","name":"getProvidersByProductType","inputs":[{"name":"productType","type":"uint8","internalType":"enum ServiceProviderRegistryStorage.ProductType"},{"name":"offset","type":"uint256","internalType":"uint256"},{"name":"limit","type":"uint256","internalType":"uint256"}],"outputs":[{"name":"result","type":"tuple","internalType":"struct ServiceProviderRegistryStorage.PaginatedProviders","components":[{"name":"providers","type":"tuple[]","internalType":"struct ServiceProviderRegistryStorage.ProviderWithProduct[]","components":[{"name":"providerId","type":"uint256","internalType":"uint256"},{"name":"providerInfo","type":"tuple","internalType":"struct ServiceProviderRegistryStorage.ServiceProviderInfo","components":[{"name":"beneficiary","type":"address","internalType":"address"},{"name":"name","type":"string","internalType":"string"},{"name":"description","type":"string","internalType":"string"},{"name":"isActive","type":"bool","internalType":"bool"}]},{"name":"product","type":"tuple","internalType":"struct ServiceProviderRegistryStorage.ServiceProduct","components":[{"name":"productType","type":"uint8","internalType":"enum ServiceProviderRegistryStorage.ProductType"},{"name":"productData","type":"bytes","internalType":"bytes"},{"name":"capabilityKeys","type":"string[]","internalType":"string[]"},{"name":"isActive","type":"bool","internalType":"bool"}]}]},{"name":"hasMore","type":"bool","internalType":"bool"}]}],"stateMutability":"view"},{"type":"function","name":"initialize","inputs":[],"outputs":[],"stateMutability":"nonpayable"},{"type":"function","name":"isProviderActive","inputs":[{"name":"providerId","type":"uint256","internalType":"uint256"}],"outputs":[{"name":"","type":"bool","internalType":"bool"}],"stateMutability":"view"},{"type":"function","name":"isRegisteredProvider","inputs":[{"name":"provider","type":"address","internalType":"address"}],"outputs":[{"name":"","type":"bool","internalType":"bool"}],"stateMutability":"view"},{"type":"function","name":"migrate","inputs":[{"name":"newVersion","type":"string","internalType":"string"}],"outputs":[],"stateMutability":"nonpayable"},{"type":"function","name":"owner","inputs":[],"outputs":[{"name":"","type":"address","internalType":"address"}],"stateMutability":"view"},{"type":"function","name":"productCapabilities","inputs":[{"name":"providerId","type":"uint256","internalType":"uint256"},{"name":"productType","type":"uint8","internalType":"enum ServiceProviderRegistryStorage.ProductType"},{"name":"key","type":"string","internalType":"string"}],"outputs":[{"name":"value","type":"string","internalType":"string"}],"stateMutability":"view"},{"type":"function","name":"productTypeProviderCount","inputs":[{"name":"productType","type":"uint8","internalType":"enum ServiceProviderRegistryStorage.ProductType"}],"outputs":[{"name":"count","type":"uint256","internalType":"uint256"}],"stateMutability":"view"},{"type":"function","name":"providerHasProduct","inputs":[{"name":"providerId","type":"uint256","internalType":"uint256"},{"name":"productType","type":"uint8","internalType":"enum ServiceProviderRegistryStorage.ProductType"}],"outputs":[{"name":"","type":"bool","internalType":"bool"}],"stateMutability":"view"},{"type":"function","name":"providerProducts","inputs":[{"name":"providerId","type":"uint256","internalType":"uint256"},{"name":"productType","type":"uint8","internalType":"enum ServiceProviderRegistryStorage.ProductType"}],"outputs":[{"name":"productType","type":"uint8","internalType":"enum ServiceProviderRegistryStorage.ProductType"},{"name":"productData","type":"bytes","internalType":"bytes"},{"name":"isActive","type":"bool","internalType":"bool"}],"stateMutability":"view"},{"type":"function","name":"providers","inputs":[{"name":"providerId","type":"uint256","internalType":"uint256"}],"outputs":[{"name":"beneficiary","type":"address","internalType":"address"},{"name":"name","type":"string","internalType":"string"},{"name":"description","type":"string","internalType":"string"},{"name":"isActive","type":"bool","internalType":"bool"}],"stateMutability":"view"},{"type":"function","name":"proxiableUUID","inputs":[],"outputs":[{"name":"","type":"bytes32","internalType":"bytes32"}],"stateMutability":"view"},{"type":"function","name":"registerProvider","inputs":[{"name":"name","type":"string","internalType":"string"},{"name":"description","type":"string","internalType":"string"},{"name":"productType","type":"uint8","internalType":"enum ServiceProviderRegistryStorage.ProductType"},{"name":"productData","type":"bytes","internalType":"bytes"},{"name":"capabilityKeys","type":"string[]","internalType":"string[]"},{"name":"capabilityValues","type":"string[]","internalType":"string[]"}],"outputs":[{"name":"providerId","type":"uint256","internalType":"uint256"}],"stateMutability":"payable"},{"type":"function","name":"removeProduct","inputs":[{"name":"productType","type":"uint8","internalType":"enum ServiceProviderRegistryStorage.ProductType"}],"outputs":[],"stateMutability":"nonpayable"},{"type":"function","name":"removeProvider","inputs":[],"outputs":[],"stateMutability":"nonpayable"},{"type":"function","name":"renounceOwnership","inputs":[],"outputs":[],"stateMutability":"nonpayable"},{"type":"function","name":"transferOwnership","inputs":[{"name":"newOwner","type":"address","internalType":"address"}],"outputs":[],"stateMutability":"nonpayable"},{"type":"function","name":"transferProviderBeneficiary","inputs":[{"name":"newBeneficiary","type":"address","internalType":"address"}],"outputs":[],"stateMutability":"nonpayable"},{"type":"function","name":"updatePDPServiceWithCapabilities","inputs":[{"name":"pdpOffering","type":"tuple","internalType":"struct ServiceProviderRegistryStorage.PDPOffering","components":[{"name":"serviceURL","type":"string","internalType":"string"},{"name":"minPieceSizeInBytes","type":"uint256","internalType":"uint256"},{"name":"maxPieceSizeInBytes","type":"uint256","internalType":"uint256"},{"name":"ipniPiece","type":"bool","internalType":"bool"},{"name":"ipniIpfs","type":"bool","internalType":"bool"},{"name":"storagePricePerTibPerMonth","type":"uint256","internalType":"uint256"},{"name":"minProvingPeriodInEpochs","type":"uint256","internalType":"uint256"},{"name":"location","type":"string","internalType":"string"},{"name":"paymentTokenAddress","type":"address","internalType":"contract IERC20"}]},{"name":"capabilityKeys","type":"string[]","internalType":"string[]"},{"name":"capabilityValues","type":"string[]","internalType":"string[]"}],"outputs":[],"stateMutability":"nonpayable"},{"type":"function","name":"updateProduct","inputs":[{"name":"productType","type":"uint8","internalType":"enum ServiceProviderRegistryStorage.ProductType"},{"name":"productData","type":"bytes","internalType":"bytes"},{"name":"capabilityKeys","type":"string[]","internalType":"string[]"},{"name":"capabilityValues","type":"string[]","internalType":"string[]"}],"outputs":[],"stateMutability":"nonpayable"},{"type":"function","name":"updateProviderInfo","inputs":[{"name":"name","type":"string","internalType":"string"},{"name":"description","type":"string","internalType":"string"}],"outputs":[],"stateMutability":"nonpayable"},{"type":"function","name":"upgradeToAndCall","inputs":[{"name":"newImplementation","type":"address","internalType":"address"},{"name":"data","type":"bytes","internalType":"bytes"}],"outputs":[],"stateMutability":"payable"},{"type":"event","name":"BeneficiaryTransferred","inputs":[{"name":"providerId","type":"uint256","indexed":true,"internalType":"uint256"},{"name":"previousBeneficiary","type":"address","indexed":true,"internalType":"address"},{"name":"newBeneficiary","type":"address","indexed":true,"internalType":"address"}],"anonymous":false},{"type":"event","name":"ContractUpgraded","inputs":[{"name":"version","type":"string","indexed":false,"internalType":"string"},{"name":"implementation","type":"address","indexed":false,"internalType":"address"}],"anonymous":false},{"type":"event","name":"EIP712DomainChanged","inputs":[],"anonymous":false},{"type":"event","name":"Initialized","inputs":[{"name":"version","type":"uint64","indexed":false,"internalType":"uint64"}],"anonymous":false},{"type":"event","name":"OwnershipTransferred","inputs":[{"name":"previousOwner","type":"address","indexed":true,"internalType":"address"},{"name":"newOwner","type":"address","indexed":true,"internalType":"address"}],"anonymous":false},{"type":"event","name":"ProductAdded","inputs":[{"name":"providerId","type":"uint256","indexed":true,"internalType":"uint256"},{"name":"productType","type":"uint8","indexed":true,"internalType":"enum ServiceProviderRegistryStorage.ProductType"},{"name":"serviceUrl","type":"string","indexed":false,"internalType":"string"},{"name":"beneficiary","type":"address","indexed":false,"internalType":"address"},{"name":"capabilityKeys","type":"string[]","indexed":false,"internalType":"string[]"},{"name":"capabilityValues","type":"string[]","indexed":false,"internalType":"string[]"}],"anonymous":false},{"type":"event","name":"ProductRemoved","inputs":[{"name":"providerId","type":"uint256","indexed":true,"internalType":"uint256"},{"name":"productType","type":"uint8","indexed":true,"internalType":"enum ServiceProviderRegistryStorage.ProductType"}],"anonymous":false},{"type":"event","name":"ProductUpdated","inputs":[{"name":"providerId","type":"uint256","indexed":true,"internalType":"uint256"},{"name":"productType","type":"uint8","indexed":true,"internalType":"enum ServiceProviderRegistryStorage.ProductType"},{"name":"serviceUrl","type":"string","indexed":false,"internalType":"string"},{"name":"beneficiary","type":"address","indexed":false,"internalType":"address"},{"name":"capabilityKeys","type":"string[]","indexed":false,"internalType":"string[]"},{"name":"capabilityValues","type":"string[]","indexed":false,"internalType":"string[]"}],"anonymous":false},{"type":"event","name":"ProviderInfoUpdated","inputs":[{"name":"providerId","type":"uint256","indexed":true,"internalType":"uint256"}],"anonymous":false},{"type":"event","name":"ProviderRegistered","inputs":[{"name":"providerId","type":"uint256","indexed":true,"internalType":"uint256"},{"name":"beneficiary","type":"address","indexed":true,"internalType":"address"}],"anonymous":false},{"type":"event","name":"ProviderRemoved","inputs":[{"name":"providerId","type":"uint256","indexed":true,"internalType":"uint256"}],"anonymous":false},{"type":"event","name":"Upgraded","inputs":[{"name":"implementation","type":"address","indexed":true,"internalType":"address"}],"anonymous":false},{"type":"error","name":"AddressEmptyCode","inputs":[{"name":"target","type":"address","internalType":"address"}]},{"type":"error","name":"ERC1967InvalidImplementation","inputs":[{"name":"implementation","type":"address","internalType":"address"}]},{"type":"error","name":"ERC1967NonPayable","inputs":[]},{"type":"error","name":"FailedCall","inputs":[]},{"type":"error","name":"InvalidInitialization","inputs":[]},{"type":"error","name":"NotInitializing","inputs":[]},{"type":"error","name":"OwnableInvalidOwner","inputs":[{"name":"owner","type":"address","internalType":"address"}]},{"type":"error","name":"OwnableUnauthorizedAccount","inputs":[{"name":"account","type":"address","internalType":"address"}]},{"type":"error","name":"UUPSUnauthorizedCallContext","inputs":[]},{"type":"error","name":"UUPSUnsupportedProxiableUUID","inputs":[{"name":"slot","type":"bytes32","internalType":"bytes32"}]}],"bytecode":{"object":"0x60a080604052346100c257306080525f5160206152b85f395f51905f525460ff8160401c166100b3576002600160401b03196001600160401b03821601610060575b6040516151f190816100c78239608051818181611f420152614d880152f35b6001600160401b0319166001600160401b039081175f5160206152b85f395f51905f525581527fc7f505b2f371ae2175ee4913f4499e1f2633a7b5936321eed1cdaeb6115181d290602090a15f80610041565b63f92ee8a960e01b5f5260045ffd5b5f80fdfe60806040526004361015610011575f80fd5b5f3560e01c806302ff8437146132d25780630a1af145146130f65780630a6a63f1146130d45780630b5c01251461297857806315a954e5146124145780631e35bdde1461234f578063213c63b1146123355780632335bde0146122e95780632f67c065146122a75780634368bafb1461222457806346ce4175146122085780634f1ef2861461208f57806350f3fc8114611ff457806351ca236f14611f9657806352d1902d14611f305780635c42d07914611eaa57806364b4f75114611e885780636bf6d74f14611e195780636e36e97414611dfe578063715018a614611d975780637f65756714611d7d5780638129fc1c146118e057806382ee4b341461189157806383df54a51461182057806384b0196e1461157d5780638bdc7747146115555780638c9a7b56146110355780638da5cb5b1461100157806393ecb91e146102db578063a643324014610e06578063a9d239b614610c77578063aca0988f14610bd7578063ad3cb1cc14610b90578063b6363b991461099d578063c439fd57146108b7578063c9c5b5b414610715578063cde24beb146106a3578063d1329d4e14610667578063d1c21b5b146103ae578063dcea1c6f14610393578063deb0e46214610344578063e459382f14610313578063e835440e146102db578063f08bbda0146102be578063f2fde38b14610293578063fc260f7b1461026d5763ffa1ad741461021e575f80fd5b34610269575f3660031901126102695761026560405161023f604082613598565b6005815264302e302e3160d81b6020820152604051918291602083526020830190613797565b0390f35b5f80fd5b3461026957610265610287610281366137bb565b91614683565b60405191829182613834565b34610269576020366003190112610269576102bc6102af613530565b6102b7614ddc565b614612565b005b34610269575f366003190112610269576020600754604051908152f35b34610269576020366003190112610269576001600160a01b036102fc613530565b165f526003602052602060405f2054604051908152f35b346102695760203660031901126102695760043560018110156102695761033b6020916139a2565b54604051908152f35b34610269576020366003190112610269576004356001600160401b0381116102695761037f61037a61026592369060040161360a565b6145f6565b604051918291602083526020830190613aff565b34610269575f36600319011261026957602060405160808152f35b34610269576040366003190112610269576004356001600160401b038111610269576103de903690600401613453565b6024356001600160401b038111610269576103fd903690600401613453565b9092335f52600360205260405f20549283151561041981613bde565b8061065c575b61042890613dcd565b5f8481526001602052604090205461044a906001600160a01b03161515613e19565b835f52600160205261046560ff600360405f2001541661447f565b6104726080821115613c2a565b610480610100841115613c66565b835f526001602052600160405f2001916001600160401b0382116105d9576104b2826104ac85546139cf565b85613ccd565b5f90601f83116001146105f8576104e092915f91836105ed575b50508160011b915f199060031b1c19161790565b90555b815f526001602052600260405f2001906001600160401b0381116105d9576105158161050f84546139cf565b84613ccd565b5f601f82116001146105775781906105439394955f9261056c5750508160011b915f199060031b1c19161790565b90555b7fae10af73bdb200f240b1ea85ef806346fb24c82388af00414f4c5fcfeef68f765f80a2005b0135905085806104cc565b601f19821694835f5260205f20915f5b8781106105c15750836001959697106105a8575b505050811b019055610546565b01355f19600384901b60f8161c1916905584808061059b565b90926020600181928686013581550194019101610587565b634e487b7160e01b5f52604160045260245ffd5b0135905087806104cc565b601f19831691845f5260205f20925f5b818110610644575090846001959493921061062b575b505050811b0190556104e3565b01355f19600384901b60f8161c1916905586808061061e565b91936020600181928787013581550195019201610608565b505f5484111561041f565b34610269575f366003190112610269575f546001810180911161068f57602090604051908152f35b634e487b7160e01b5f52601160045260245ffd5b3461026957602060ff60036106fd6106ba36613a88565b908015158061070a575b6106cd90613dcd565b5f8181526001875260409020546106ee906001600160a01b03161515613e19565b5f526002855260405f206139b9565b0154166040519015158152f35b505f548111156106c4565b34610269576020366003190112610269576004356001600160401b0381116102695761074590369060040161360a565b61074d614d7e565b5f51602061519c5f395f51905f525460ff8160401c169081156108a2575b506108935760026001600160401b03195f51602061519c5f395f51905f525416175f51602061519c5f395f51905f525560ff60401b195f51602061519c5f395f51905f5254169030330361084e576108097f2b51ff7c4cc8e6fe1c72e9d9685b7d2a88a5d82ad3a644afbdceb0272c89c1c39160018060a01b035f51602061517c5f395f51905f525416604051928392604084526040840190613797565b9060208301520390a15f51602061519c5f395f51905f52557fc7f505b2f371ae2175ee4913f4499e1f2633a7b5936321eed1cdaeb6115181d2602060405160028152a1005b60405162461bcd60e51b815260206004820152601a60248201527f4f6e6c792073656c662063616e2063616c6c206d6967726174650000000000006044820152606490fd5b63f92ee8a960e01b5f5260045ffd5b600291506001600160401b031610158261076b565b34610269576020366003190112610269576109526004356108d661443a565b81151580610992575b6108e890613dcd565b5f8281526001602052604090205461090a906001600160a01b03161515613e19565b9060605f915f52600260205260405f205f805260205261092c60405f2061400b565b6020810151805161096c575b505061096090604051948594606086526060860190613aff565b908482036020860152613aa7565b90151560408301520390f35b9150925061097a91506145f6565b90610960606060408301519201511515919085610938565b505f548211156108df565b34610269575f36600319011261026957335f52600360205260405f20548015156109c681613bde565b80610b85575b6109d590613dcd565b5f818152600160205260409020546109f7906001600160a01b03161515613e19565b805f526001602052610a1260ff600360405f2001541661447f565b5f81815260016020526040902054610a34906001600160a01b031633146147b4565b805f526001602052600360405f200160ff198154169055610a56600754614e0f565b600755805f52600260205260405f205f8052602052610a7b600160405f2001546139cf565b610ac8575b805f52600160205260018060a01b0360405f2054165f5260036020525f60408120557f452148878c72ebab44f2761cb8b0b79c50628a437350aee5f3aab66625addcc45f80a2005b805f52600260205260405f205f805260205260405f206003810160ff815416610b4a575b90825f52600460205260405f205f805260205260405f209260025f9201915b8254811015610b395780610b33610b2e87610b28600195886148bd565b506148d2565b614957565b01610b0b565b5092505060ff198154169055610a80565b5f805260066020527f54cdd369e4e8a8515e52ca72ec816c2101831ad1f18bf44102ed171459c9b4f88054610b7e90614e0f565b9055610aec565b505f548111156109cc565b34610269575f36600319011261026957610265604051610bb1604082613598565b60058152640352e302e360dc1b6020820152604051918291602083526020830190613797565b3461026957610952610c38610c33610bee36613a88565b9080151580610c6c575b610c0190613dcd565b5f81815260016020526040902054610c23906001600160a01b03161515613e19565b5f52600260205260405f206139b9565b61400b565b602081015190610c6260606040830151920151151591604051948594606086526060860190613797565b9060408301520390f35b505f54811115610bf8565b3461026957602036600319011261026957600435600181101561026957610c9e8115613b80565b335f52600360205260405f2054801515610cb781613bde565b80610dfb575b610cc690613dcd565b5f81815260016020526040902054610ce8906001600160a01b03161515613e19565b805f526001602052610d0360ff600360405f2001541661447f565b5f81815260016020526040902054610d25906001600160a01b031633146147b4565b805f526002602052610d4960ff6003610d418560405f206139b9565b015416614860565b805f526002602052610d5e8260405f206139b9565b815f526004602052610d738360405f206139b9565b9260025f9201915b8254811015610d9e5780610d98610b2e87610b28600195886148bd565b01610d7b565b5082805f5260026020526003610db78360405f206139b9565b01805460ff19169055610dc98261398b565b610dd38154614e0f565b90557f4c363c6cd3d80189ef501b26de41894b3ed5e7b4a85b096be6cbcaa8a13e5e4d5f80a3005b505f54811115610cbd565b34610269576060366003190112610269576004356024356001811015610269576044356001600160401b03811161026957610e45903690600401613480565b9083151580610ff6575b610e5b90939293613dcd565b5f84815260016020526040902054610e7d906001600160a01b03161515613e19565b610e86836136fa565b91610e946040519384613598565b838352610ea0846136fa565b602084019190601f1901368337610eb6856136fa565b95610ec46040519788613598565b858752601f19610ed3876136fa565b015f5b818110610fe357505090610ef4915f52600460205260405f206139b9565b9136819003601e1901915f5b86811015610f94578060051b83013584811215610269578301908135916001600160401b0383116102695760200191803603831361026957610f5e610f4b88610f5793600196613e5a565b60405192838092613a07565b0382613598565b8051610f6c575b5001610f00565b82610f77838a6140b6565b52610f82828b6140b6565b52610f8d818a6140b6565b5089610f65565b50848760405191604083019060408452518091526060830193905f5b818110610fcb57848061026588878382036020850152613aa7565b82511515865260209586019590920191600101610fb0565b60606020828b0181019190915201610ed6565b505f54841115610e4f565b34610269575f366003190112610269575f51602061513c5f395f51905f52546040516001600160a01b039091168152602090f35b3461026957611043366134b0565b9293906001871015611541576110979061108f88159661106288613b80565b335f52600360205261108760405f2054998a15159661108088613bde565b36916135d4565b953691613711565b943691613711565b9080611536575b6110aa90969596613dcd565b5f868152600160205260409020546110cc906001600160a01b03161515613e19565b855f5260016020526110e760ff600360405f2001541661447f565b5f86815260016020526040902054611109906001600160a01b031633146147b4565b855f52600260205261111e8560405f206139b9565b94600386019661113160ff895416614860565b61113b8483614e1b565b6111458386614ecb565b805f52600460205261115a8260405f206139b9565b955f9860028901995b8a548110156111875780611181610b2e8b610b288f956001966148bd565b01611163565b508960018a9997989961119a87826149a5565b0188516001600160401b0381116105d9576111b98161050f84546139cf565b6020601f82116001146114d45790806111e6925f916114c9575b508160011b915f199060031b1c19161790565b90555b8851600160401b81116105d957815481835580821061149c575b5060208a01915f5260205f20915f905b8282106113bc5750505050600160ff198254161790555f5b87518110156113325761123e81866140b6565b5160208061124c848c6140b6565b51604051928184925191829101835e81018a815203019020908051906001600160401b0382116105d957611284826104ac85546139cf565b602090601f83116001146112cb5791806112b79260019695945f926112c05750508160011b915f199060031b1c19161790565b90555b0161122b565b015190508d806104cc565b90601f19831691845f52815f20925f5b81811061131a575091600196959492918388959310611302575b505050811b0190556112ba565b01515f1960f88460031b161c191690558c80806112f5565b929360206001819287860151815501950193016112db565b50867fc340a6dcdd0e7d3f96b6b2d3729fe5f0a6114e5847ba52b9e0071bf156dbaed6918588604051611366602082613598565b5f81529261139b575b5061139690855f52600160205260018060a01b0360405f2054169360405194859485614819565b0390a3005b611396919250806020806113b493518301019101614517565b51919061136f565b80518051906001600160401b0382116105d9576113e3826113dd88546139cf565b88613ccd565b602090601f83116001146114335792611419836001959460209487965f926114285750508160011b915f199060031b1c19161790565b87555b01940191019092611213565b015190505f806104cc565b90601f19831691875f52815f20925f5b818110611484575093602093600196938796938388951061146c575b505050811b01875561141c565b01515f1960f88460031b161c191690555f808061145f565b92936020600181928786015181550195019301611443565b825f528160205f2091820191015b8181106114b75750611203565b806114c3600192614957565b016114aa565b90508b01518d6111d3565b601f19821690835f52805f20915f5b8d82821061151e5750509083600194939210611506575b5050811b0190556111e9565b8c01515f1960f88460031b161c191690558c806114fa565b600184956020939584930151815501940192016114e3565b505f5485111561109e565b634e487b7160e01b5f52602160045260245ffd5b346102695760203660031901126102695760043560018110156102695761033b60209161398b565b34610269575f366003190112610269577fa16a46d94261c7517cc8ff89f61c0ce93598e3c849801011dee649a6a557d1005415806117f7575b156117ba576040515f51602061511c5f395f51905f5254815f6115d8836139cf565b808352926001811690811561179b5750600114611730575b6115fc92500382613598565b604051905f5f51602061515c5f395f51905f5254611619816139cf565b808552906001811690811561170e57506001146116aa575b508261164561167c94610265930382613598565b61168a60405191611657602084613598565b5f83525f368137604051958695600f60f81b875260e0602088015260e0870190613797565b908582036040870152613797565b904660608501523060808501525f60a085015283820360c0850152613958565b5f51602061515c5f395f51905f525f90815291507f5f9ce34815f8e11431c7bb75a8e6886a91478f7ffc1dbb0a98dc240fddd76b755b8183106116f4575050820160200182611631565b6001816020929493945483858901015201910191906116e0565b60ff191660208087019190915291151560051b85019091019150839050611631565b505f51602061511c5f395f51905f525f90815290917f42ad5d3e1f2e6e70edcf6d991b8a3023d3fca8047a131592f9edb9fd9b89d57d5b81831061177f5750509060206115fc928201016115f0565b6020919350806001915483858801015201910190918392611767565b602092506115fc94915060ff191682840152151560051b8201016115f0565b60405162461bcd60e51b81526020600482015260156024820152741152540dcc4c8e88155b9a5b9a5d1a585b1a5e9959605a1b6044820152606490fd5b507fa16a46d94261c7517cc8ff89f61c0ce93598e3c849801011dee649a6a557d10154156115b6565b346102695760203660031901126102695760043580151580611886575b61184690613dcd565b5f81815260016020526040902054611868906001600160a01b03161515613e19565b5f526001602052602060ff600360405f200154166040519015158152f35b505f5481111561183d565b34610269576020366003190112610269576004356001600160401b038111610269576118cc6118c7610265923690600401613635565b61440f565b604051918291602083526020830190613797565b34610269575f366003190112610269575f51602061519c5f395f51905f52546001600160401b0360ff8260401c1615911680159081611d75575b6001149081611d6b575b159081611d62575b50610893578060016001600160401b03195f51602061519c5f395f51905f525416175f51602061519c5f395f51905f5255611d32575b61196a615092565b611972615092565b61197b33614612565b611983615092565b6040908151916119938184613598565b601783527f5365727669636550726f7669646572526567697374727900000000000000000060208401528051916119ca8284613598565b60018352603160f81b60208401526119e0615092565b6119e8615092565b83516001600160401b0381116105d957611a0f5f51602061511c5f395f51905f52546139cf565b601f8111611cd8575b50602094601f8211600114611c5d57611a4a9293949582915f92611c525750508160011b915f199060031b1c19161790565b5f51602061511c5f395f51905f52555b82516001600160401b0381116105d957611a815f51602061515c5f395f51905f52546139cf565b601f8111611bed575b506020601f8211600114611b72578190611aba9394955f92611b675750508160011b915f199060031b1c19161790565b5f51602061515c5f395f51905f52555b5f7fa16a46d94261c7517cc8ff89f61c0ce93598e3c849801011dee649a6a557d100555f7fa16a46d94261c7517cc8ff89f61c0ce93598e3c849801011dee649a6a557d10155611b1657005b60207fc7f505b2f371ae2175ee4913f4499e1f2633a7b5936321eed1cdaeb6115181d29160ff60401b195f51602061519c5f395f51905f5254165f51602061519c5f395f51905f52555160018152a1005b0151905085806104cc565b601f198216905f51602061515c5f395f51905f525f52805f20915f5b818110611bd557509583600195969710611bbd575b505050811b015f51602061515c5f395f51905f5255611aca565b01515f1960f88460031b161c19169055848080611ba3565b9192602060018192868b015181550194019201611b8e565b5f51602061515c5f395f51905f525f52611c42907f5f9ce34815f8e11431c7bb75a8e6886a91478f7ffc1dbb0a98dc240fddd76b75601f840160051c81019160208510611c48575b601f0160051c0190613cb7565b84611a8a565b9091508190611c35565b0151905086806104cc565b601f198216955f51602061511c5f395f51905f525f52805f20915f5b888110611cc057508360019596979810611ca8575b505050811b015f51602061511c5f395f51905f5255611a5a565b01515f1960f88460031b161c19169055858080611c8e565b91926020600181928685015181550194019201611c79565b5f51602061511c5f395f51905f525f52611d2c907f42ad5d3e1f2e6e70edcf6d991b8a3023d3fca8047a131592f9edb9fd9b89d57d601f840160051c81019160208510611c4857601f0160051c0190613cb7565b85611a18565b600160401b60ff60401b195f51602061519c5f395f51905f525416175f51602061519c5f395f51905f5255611962565b9050158261192c565b303b159150611924565b82915061191a565b34610269575f366003190112610269576020604051818152f35b34610269575f36600319011261026957611daf614ddc565b5f51602061513c5f395f51905f5280546001600160a01b031981169091555f906001600160a01b03167f8be0079c531659141344cd1fd0a4f28419497f9722a3daafe3b4186f6b6457e08280a3005b34610269575f366003190112610269576020604051600a8152f35b3461026957611e77611e3e611e2d36613a88565b905f52600260205260405f206139b9565b60ff8154169061096060ff600360405193611e6785611e608160018501613a07565b0386613598565b0154169160405194858095613827565b606060208501526060840190613797565b34610269575f366003190112610269576020604051674563918244f400008152f35b3461026957602036600319011261026957600435611ec6613e9c565b5080151580611f25575b611ed990613dcd565b5f81815260016020526040902054611efb906001600160a01b03161515613e19565b5f526001602052610265611f1160405f20613fa2565b6040519182916020835260208301906137de565b505f54811115611ed0565b34610269575f366003190112610269577f00000000000000000000000000000000000000000000000000000000000000006001600160a01b03163003611f875760206040515f51602061517c5f395f51905f528152f35b63703e46dd60e11b5f5260045ffd5b34610269576020366003190112610269576001600160a01b03611fb7613530565b165f52600360205260405f205480151580611fda575b6020906040519015158152f35b505f526001602052602060ff600360405f20015416611fcd565b34610269576020366003190112610269576004355f52600160205260405f2060018060a01b0381541660405191612039836120328160018501613a07565b0384613598565b61208360ff60036040519361205585611e608160028501613a07565b015416916120756040519586958652608060208701526080860190613797565b908482036040860152613797565b90151560608301520390f35b6040366003190112610269576120a3613530565b6024356001600160401b038111610269576120c290369060040161360a565b6120ca614d7e565b6120d2614ddc565b6040516352d1902d60e01b81526001600160a01b0383169290602081600481875afa5f91816121d4575b506121145783634c9c8ce360e01b5f5260045260245ffd5b805f51602061517c5f395f51905f528592036121c25750813b156121b0575f51602061517c5f395f51905f5280546001600160a01b031916821790557fbc7cd75a20ee27fd9adebab32041f755214dbc6bffa90cc0225b39da2e5c2d3b5f80a2815115612198575f808360206102bc95519101845af4612192613d9e565b916150bd565b5050346121a157005b63b398979f60e01b5f5260045ffd5b634c9c8ce360e01b5f5260045260245ffd5b632a87526960e21b5f5260045260245ffd5b9091506020813d602011612200575b816121f060209383613598565b81010312610269575190856120fc565b3d91506121e3565b34610269575f3660031901126102695760205f54604051908152f35b3461026957606036600319011261026957602435600181101561026957604435906001600160401b038211610269576118cc602080610f579361228461227161026597369060040161360a565b916004355f526004845260405f206139b9565b604051938285935191829101845e82019081520301902060405192838092613a07565b34610269576040366003190112610269576122dd6122c96024356004356142c0565b604051928392604084526040840190613958565b90151560208301520390f35b3461026957602036600319011261026957612302613530565b61230a613e9c565b5060018060a01b03165f52600360205260405f20545f526001602052610265611f1160405f20613fa2565b3461026957610265610287612349366137bb565b916140de565b34610269576060366003190112610269576004356024356001811015610269576044356001600160401b03811161026957610f57926123e9926123e361239c610f4b943690600401613453565b92909380151580612409575b6123b190613dcd565b5f818152600160205260409020546123d3906001600160a01b03161515613e19565b5f52600460205260405f206139b9565b91613e5a565b805115156102656040519283928352604060208401526040830190613797565b505f548111156123a8565b60c0366003190112610269576004356001600160401b0381116102695761243f903690600401613453565b6024356001600160401b0381116102695761245e903690600401613453565b9290604435906001821015610269576064356001600160401b0381116102695761248c903690600401613453565b9190946084356001600160401b038111610269576124ae903690600401613480565b60a4356001600160401b038111610269576124cd903690600401613480565b9390946124da8815613b80565b335f52600360205260405f205461293357674563918244f4000034036128f7576125509061250b6080841115613c2a565b6125196101008d1115613c66565b6125416125265f54613ca9565b9a8b5f556040519461253786613546565b33865236916135d4565b9b602084019c8d5236916135d4565b60408281019182526001606084018181525f8c8152602083905292909220935184546001600160a01b0319166001600160a01b03919091161784559b518051919c840191906001600160401b0382116105d9576125b1826104ac85546139cf565b602090601f8311600114612894576125df92915f91836128895750508160011b915f199060031b1c19161790565b90555b51805160028301916001600160401b0382116105d957612606826104ac85546139cf565b602090601f831160011461281a5792612643838d9e9f93946003959d9e9d61265c98975f926114285750508160011b915f199060031b1c19161790565b90555b51151591019060ff801983541691151516179055565b335f5260036020528560405f2055612675600754613ca9565b60075533867f585f1c5ef34622f98a20e1f973c5c5a43644292d86f07ab086e992a91c407ea85f80a36126ca6126ac36878c6135d4565b6126b7368486613711565b6126c2368789613711565b918a8a6149bd565b6020986040516126da8b82613598565b5f81529588156127ae575b5050927f93c484964e7897bebc18f4392da3a48d42bf4356601904bf354a6537376af717949261273d61274b9361272a96604051978897608089526080890190613797565b33888f0152878103604089015291613d07565b918483036060860152613d07565b0390a35f808080674563918244f40000606360ff60981b015af161276d613d9e565b501561277b57604051908152f35b60405162461bcd60e51b815260048101839052600b60248201526a109d5c9b8819985a5b195960aa1b6044820152606490fd5b91939650809492955001908884830312610269578335956001600160401b0387116102695761273d7f93c484964e7897bebc18f4392da3a48d42bf4356601904bf354a6537376af7179661280b61274b958c9a61272a9901613635565b519750935081949295506126e5565b90601f19831691845f52815f20925f5b8181106128715750938d9e9f9361265c9796939d9e9d600193836003981061285a575b505050811b019055612646565b01515f1983881b60f8161c191690555f808061284d565b9293602060018192878601518155019501930161282a565b015190508f806104cc565b90601f19831691845f52815f20925f5b8181106128df57509084600195949392106128c7575b505050811b0190556125e2565b01515f1960f88460031b161c191690558e80806128ba565b929360206001819287860151815501950193016128a4565b60405162461bcd60e51b8152602060048201526014602482015273125b98dbdc9c9958dd0819995948185b5bdd5b9d60621b6044820152606490fd5b60405162461bcd60e51b815260206004820152601a60248201527f4164647265737320616c726561647920726567697374657265640000000000006044820152606490fd5b34610269576060366003190112610269576004356001600160401b038111610269576129a8903690600401613635565b6024356001600160401b038111610269576129c790369060040161377c565b6044356001600160401b038111610269576129e690369060040161377c565b90335f52600360205260405f205490612a05821515946118c786613bde565b93806130c9575b612a1590613dcd565b5f82815260016020526040902054612a37906001600160a01b03161515613e19565b815f526001602052612a5260ff600360405f2001541661447f565b5f82815260016020526040902054612a74906001600160a01b031633146147b4565b815f52600260205260405f205f805260205260405f20936003850193612a9d60ff865416614860565b815193612ab260208085019685010186614517565b8051511561308457610100815151116130485760208101805115612ff5576040820151905111612f9f5760c081015115612f485760e00180515115612f0357608090515111612eca57612b088285989798614ecb565b805f52600460205260405f205f805260205260405f20945f9760028801985b8954811015612b4a5780612b44610b2e8a610b286001958f6148bd565b01612b27565b50886001899896979860ff1981541681550187516001600160401b0381116105d957612b7a8161050f84546139cf565b6020601f8211600114612e68579080612ba6925f91612e5d57508160011b915f199060031b1c19161790565b90555b8751600160401b81116105d9578154818355808210612e30575b5060208901915f5260205f20915f905b828210612d615750505050600160ff198254161790555f5b8651811015612cf257612bfe81856140b6565b51602080612c0c848b6140b6565b51604051928184925191829101835e810189815203019020908051906001600160401b0382116105d957612c44826104ac85546139cf565b602090601f8311600114612c8b579180612c779260019695945f92612c805750508160011b915f199060031b1c19161790565b90555b01612beb565b015190508c806104cc565b90601f19831691845f52815f20925f5b818110612cda575091600196959492918388959310612cc2575b505050811b019055612c7a565b01515f1960f88460031b161c191690558b8080612cb5565b92936020600181928786015181550195019301612c9b565b50855f93611396612d3a7fc340a6dcdd0e7d3f96b6b2d3729fe5f0a6114e5847ba52b9e0071bf156dbaed69460208a89604051612d2f8482613598565b528051010190614517565b51858752600160205260408088205490519485949290916001600160a01b03169085614819565b80518051906001600160401b0382116105d957612d82826113dd88546139cf565b602090601f8311600114612dc75792612db8836001959460209487965f926114285750508160011b915f199060031b1c19161790565b87555b01940191019092612bd3565b90601f19831691875f52815f20925f5b818110612e185750936020936001969387969383889510612e00575b505050811b018755612dbb565b01515f1960f88460031b161c191690555f8080612df3565b92936020600181928786015181550195019301612dd7565b825f528160205f2091820191015b818110612e4b5750612bc3565b80612e57600192614957565b01612e3e565b90508a01518c6111d3565b601f19821690835f52805f20915f5b8c828210612eb25750509083600194939210612e9a575b5050811b019055612ba9565b8b01515f1960f88460031b161c191690558b80612e8e565b60018495602093958493015181550194019201612e77565b60405162461bcd60e51b81526020600482015260116024820152704c6f636174696f6e20746f6f206c6f6e6760781b6044820152606490fd5b60405162461bcd60e51b815260206004820152601860248201527f4c6f636174696f6e2063616e6e6f7420626520656d70747900000000000000006044820152606490fd5b60405162461bcd60e51b815260206004820152602960248201527f4d696e2070726f76696e6720706572696f64206d75737420626520677265617460448201526806572207468616e20360bc1b6064820152608490fd5b60405162461bcd60e51b815260206004820152602860248201527f4d61782070696563652073697a65206d757374206265203e3d206d696e2070696044820152676563652073697a6560c01b6064820152608490fd5b60405162461bcd60e51b815260206004820152602560248201527f4d696e2070696563652073697a65206d75737420626520677265617465722074604482015264068616e20360dc1b6064820152608490fd5b60405162461bcd60e51b8152602060048201526014602482015273536572766963652055524c20746f6f206c6f6e6760601b6044820152606490fd5b60405162461bcd60e51b815260206004820152601b60248201527f536572766963652055524c2063616e6e6f7420626520656d70747900000000006044820152606490fd5b505f54821115612a0c565b34610269575f36600319011261026957604051606360ff60981b018152602090f35b34610269576020366003190112610269576001600160a01b03613117613530565b16801561327e57335f52600360205260405f205480151561313781613bde565b80613273575b61314690613dcd565b5f81815260016020526040902054613168906001600160a01b03161515613e19565b805f52600160205261318360ff600360405f2001541661447f565b5f818152600160205260409020546131a5906001600160a01b031633146147b4565b815f52600360205260405f205461321f575f81815260016020908152604080832080546001600160a01b0319811687179091556001600160a01b03168084526003909252808320839055848352822083905591907fcac3b813aa052f85279f96655f0ccd339dbf77623d87f74fcd77af7719472d119080a4005b60405162461bcd60e51b815260206004820152602660248201527f4e65772062656e656669636961727920616c726561647920686173206120707260448201526537bb34b232b960d11b6064820152608490fd5b505f5481111561313d565b60405162461bcd60e51b815260206004820152602660248201527f4e65772062656e65666963696172792063616e6e6f74206265207a65726f206160448201526564647265737360d01b6064820152608490fd5b34610269576132e0366134b0565b929193906001871015611541576133269061108f88159461330086613b80565b335f52600360205261331e60405f2054998a15159661108088613bde565b973691613711565b9080613448575b61333690613dcd565b5f85815260016020526040902054613358906001600160a01b03161515613e19565b845f52600160205261337360ff600360405f2001541661447f565b5f85815260016020526040902054613395906001600160a01b031633146147b4565b845f52600260205260ff60036133ae8860405f206139b9565b0154166133f257836133e482857f93c484964e7897bebc18f4392da3a48d42bf4356601904bf354a6537376af717978a8a6149bd565b604051611366602082613598565b60405162461bcd60e51b815260206004820152602860248201527f50726f6475637420616c72656164792065786973747320666f72207468697320604482015267383937bb34b232b960c11b6064820152608490fd5b505f5485111561332d565b9181601f84011215610269578235916001600160401b038311610269576020838186019501011161026957565b9181601f84011215610269578235916001600160401b038311610269576020808501948460051b01011161026957565b90608060031983011261026957600435600181101561026957916024356001600160401b03811161026957816134e891600401613453565b929092916044356001600160401b038111610269578161350a91600401613480565b92909291606435906001600160401b0382116102695761352c91600401613480565b9091565b600435906001600160a01b038216820361026957565b608081019081106001600160401b038211176105d957604052565b61012081019081106001600160401b038211176105d957604052565b606081019081106001600160401b038211176105d957604052565b90601f801991011681019081106001600160401b038211176105d957604052565b6001600160401b0381116105d957601f01601f191660200190565b9291926135e0826135b9565b916135ee6040519384613598565b829481845281830111610269578281602093845f960137010152565b9080601f8301121561026957816020613625933591016135d4565b90565b3590811515820361026957565b919061012083820312610269576040519061364f82613561565b819380356001600160401b038111610269578261366d91830161360a565b8352602081013560208401526040810135604084015261368f60608201613628565b60608401526136a060808201613628565b608084015260a081013560a084015260c081013560c084015260e08101356001600160401b03811161026957610100926136db91830161360a565b60e08401520135906001600160a01b0382168203610269576101000152565b6001600160401b0381116105d95760051b60200190565b92919061371d816136fa565b9361372b6040519586613598565b602085838152019160051b8101918383116102695781905b838210613751575050505050565b81356001600160401b03811161026957602091613771878493870161360a565b815201910190613743565b9080601f830112156102695781602061362593359101613711565b805180835260209291819084018484015e5f828201840152601f01601f1916010190565b606090600319011261026957600435600181101561026957906024359060443590565b9060018060a01b03825116815260608061381c61380a6020860151608060208701526080860190613797565b60408601518582036040870152613797565b930151151591015290565b9060018210156115415752565b6020815260608101918051926040602084015283518091526080830190602060808260051b8601019501915f905b82821061387c575050505060206040910151151591015290565b90919295607f1986820301825286518051825260406138aa60208301516060602086015260608501906137de565b9101519160408183039101526138c1818351613827565b6138da6020830151608060208401526080830190613797565b916040810151928281036040840152835180825260208201906020808260051b8501019601925f5b82811061392d5750505050606091820151151591909201525095602090810193926001019101613862565b909192939660208061394b600193601f198782030189528b51613797565b9901950193929101613902565b90602080835192838152019201905f5b8181106139755750505090565b8251845260209384019390920191600101613968565b6001811015611541575f52600660205260405f2090565b6001811015611541575f52600560205260405f2090565b906001811015611541575f5260205260405f2090565b90600182811c921680156139fd575b60208310146139e957565b634e487b7160e01b5f52602260045260245ffd5b91607f16916139de565b5f9291815491613a16836139cf565b8083529260018116908115613a6b5750600114613a3257505050565b5f9081526020812093945091925b838310613a51575060209250010190565b600181602092949394548385870101520191019190613a40565b915050602093945060ff929192191683830152151560051b010190565b6040906003190112610269576004359060243560018110156102695790565b9080602083519182815201916020808360051b8301019401925f915b838310613ad257505050505090565b9091929394602080613af0600193601f198682030187528951613797565b97019301930191939290613ac3565b90610100613b6d613b1b84516101208552610120850190613797565b602085015160208501526040850151604085015260608501511515606085015260808501511515608085015260a085015160a085015260c085015160c085015260e085015184820360e0860152613797565b928101516001600160a01b031691015290565b15613b8757565b60405162461bcd60e51b815260206004820152602960248201527f4f6e6c79205044502070726f6475637420747970652063757272656e746c79206044820152681cdd5c1c1bdc9d195960ba1b6064820152608490fd5b15613be557565b60405162461bcd60e51b815260206004820152601760248201527f50726f7669646572206e6f7420726567697374657265640000000000000000006044820152606490fd5b15613c3157565b60405162461bcd60e51b815260206004820152600d60248201526c4e616d6520746f6f206c6f6e6760981b6044820152606490fd5b15613c6d57565b60405162461bcd60e51b81526020600482015260146024820152734465736372697074696f6e20746f6f206c6f6e6760601b6044820152606490fd5b5f19811461068f5760010190565b818110613cc2575050565b5f8155600101613cb7565b9190601f8111613cdc57505050565b613d05925f5260205f20906020601f840160051c83019310611c4857601f0160051c0190613cb7565b565b90602083828152019060208160051b85010193835f915b838310613d2e5750505050505090565b909192939495601f198282030186528635601e198436030181121561026957830190602082359201916001600160401b038111610269578036038313610269576020828280600196849695859652848401375f828201840152601f01601f19160101980196019493019190613d1e565b3d15613dc8573d90613daf826135b9565b91613dbd6040519384613598565b82523d5f602084013e565b606090565b15613dd457565b60405162461bcd60e51b815260206004820152601760248201527f50726f766964657220646f6573206e6f742065786973740000000000000000006044820152606490fd5b15613e2057565b60405162461bcd60e51b8152602060048201526012602482015271141c9bdd9a59195c881b9bdd08199bdd5b9960721b6044820152606490fd5b6020919283604051948593843782019081520301902090565b60405190604082018281106001600160401b038211176105d9576040525f602083606081520152565b60405190613ea982613546565b5f6060838281528160208201528160408201520152565b60405190613ecf602083613598565b5f80835282815b828110613ee257505050565b602090604051613ef18161357d565b5f8152613efc613e9c565b83820152613f08613e9c565b604082015282828501015201613ed6565b90613f23826136fa565b613f306040519182613598565b8281528092613f41601f19916136fa565b01905f5b828110613f5157505050565b602090604051613f608161357d565b5f8152613f6b613e9c565b83820152613f77613e9c565b604082015282828501015201613f45565b9190820180921161068f57565b9190820391821161068f57565b90604051613faf81613546565b606060ff6003839560018060a01b038154168552604051613fd781610f578160018601613a07565b6020860152604051613ff081610f578160028601613a07565b60408601520154161515910152565b60018210156115415752565b9060405161401881613546565b809261402860ff82541683613fff565b60405161403c81610f578160018601613a07565b6020830152600281018054614050816136fa565b9161405e6040519384613598565b81835260208301905f5260205f205f915b8383106140915750505050600360609260ff9260408601520154161515910152565b6001602081926040516140a881610f578189613a07565b81520192019201919061406f565b80518210156140ca5760209160051b010190565b634e487b7160e01b5f52603260045260245ffd5b929190926140ea613e73565b6140f38261398b565b548086108015906142b8575b61429f578061410e8588613f88565b1161428d575b61411d84613f19565b82526141298487613f88565b1060208201525f915f906001955f54965b8781111580614284575b1561427957805f52600160205260ff600360405f2001541680614257575b8061422e575b61417b575b61417690613ca9565b61413a565b94888110158061421c575b61419f575b61419761417691613ca9565b95905061416d565b9261419761421361417692885f52600160205261420d818a6141f560405f20825f5260026020526141eb6141d68c60405f206139b9565b91604051946141e48661357d565b8552613fa2565b602084015261400b565b60408201528a519061420783836140b6565b526140b6565b50613ca9565b9491505061418b565b50614227878a613f88565b8110614186565b50805f52600260205261425060016142498560405f206139b9565b01546139cf565b1515614168565b50805f52600260205260ff60036142718560405f206139b9565b015416614162565b509550505093505050565b50868410614144565b92506142998584613f95565b92614114565b5092935050506142ad613ec0565b81525f602082015290565b5083156140ff565b9190600754808410801590614407575b6143e957806142df8386613f88565b116143d7575b6142ee826136fa565b936142fc6040519586613598565b828552601f1961430b846136fa565b01366020870137849161431e8483613f88565b10905f925f926001965f54975b88811115806143ce575b156143c257805f52600160205260ff600360405f20015416614360575b61435b90613ca9565b61432b565b95898786831015806143b0575b614388575b505061438061435b91613ca9565b969050614352565b9161435b926143a58961439f614380959b91613ca9565b9a6140b6565b529150508987614372565b506143bb8a88613f88565b831061436d565b50955095509550505050565b50878610614335565b90506143e38382613f95565b906142e5565b505090506040516143fb602082613598565b5f81525f368137905f90565b5081156142d0565b61362561442c916040519283916020808401526040830190613aff565b03601f198101835282613598565b6040519061444782613561565b5f61010083606081528260208201528260408201528260608201528260808201528260a08201528260c0820152606060e08201520152565b1561448657565b60405162461bcd60e51b815260206004820152601660248201527550726f7669646572206973206e6f742061637469766560501b6044820152606490fd5b81601f82011215610269578051906144db826135b9565b926144e96040519485613598565b8284526020838301011161026957815f9260208093018386015e8301015290565b5190811515820361026957565b602081830312610269578051906001600160401b03821161026957019061012082820312610269576040519161454c83613561565b80516001600160401b03811161026957826145689183016144c4565b8352602081015160208401526040810151604084015261458a6060820161450a565b606084015261459b6080820161450a565b608084015260a081015160a084015260c081015160c084015260e08101516001600160401b03811161026957610100926145d69183016144c4565b60e084015201516001600160a01b03811681036102695761010082015290565b6136259061460261443a565b5060208082518301019101614517565b6001600160a01b03168015614670575f51602061513c5f395f51905f5280546001600160a01b0319811683179091556001600160a01b03167f8be0079c531659141344cd1fd0a4f28419497f9722a3daafe3b4186f6b6457e05f80a3565b631e4fbdf760e01b5f525f60045260245ffd5b9291909261468f613e73565b614698826139a2565b548086108015906147ac575b61429f57806146b38588613f88565b1161479a575b6146c284613f19565b82526146ce8487613f88565b1060208201525f915f906001955f54965b8781111580614791575b1561427957805f52600260205261470860016142498560405f206139b9565b61471b575b61471690613ca9565b6146df565b94888110158061477f575b61473f575b61473761471691613ca9565b95905061470d565b9261473761477661471692885f52600160205261420d818a6141f560405f20825f5260026020526141eb6141d68c60405f206139b9565b9491505061472b565b5061478a878a613f88565b8110614726565b508684106146e9565b92506147a68584613f95565b926146b9565b5083156146a4565b156147bb57565b60405162461bcd60e51b815260206004820152603060248201527f4f6e6c792070726f76696465722062656e65666963696172792063616e20636160448201526f3636103a3434b990333ab731ba34b7b760811b6064820152608490fd5b9291613625949261483561485293608087526080870190613797565b6001600160a01b0390921660208601528482036040860152613aa7565b916060818403910152613aa7565b1561486757565b60405162461bcd60e51b815260206004820152602860248201527f50726f6475637420646f6573206e6f7420657869737420666f72207468697320604482015267383937bb34b232b960c11b6064820152608490fd5b80548210156140ca575f5260205f2001905f90565b9060405180925f908054906148e6826139cf565b916001811690811561493f5750600114614909575b505060209281520301902090565b9091505f5260205f205f905b828210614928575050810160205f6148fb565b805482870152859350602090910190600101614915565b60ff191685525050801515028201905060205f6148fb565b61496181546139cf565b908161496b575050565b81601f5f931160011461497c575055565b8183526020832061499891601f0160051c810190600101613cb7565b8082528160208120915555565b9060018110156115415760ff80198354169116179055565b9093919492946149cd8186614e1b565b6149d78387614ecb565b604051906149e482613546565b6149ee8683613fff565b6020820190815260408201878152606083019160018352845f526002602052614a1a8860405f206139b9565b9351600181101561154157614a2f90856149a5565b51805160018501916001600160401b0382116105d957614a53826104ac85546139cf565b602090601f8311600114614d1b57614a8192915f91836114285750508160011b915f199060031b1c19161790565b90555b5180516002840191600160401b82116105d9578254828455808310614cee575b50602001915f5260205f20915f905b828210614c1f5750505050906003614adb9251151591019060ff801983541691151516179055565b5f526004602052614aef8360405f206139b9565b915f5b8551811015614bee57614b0581846140b6565b51602080614b13848a6140b6565b51604051928184925191829101835e810188815203019020908051906001600160401b0382116105d957614b4b826104ac85546139cf565b602090601f8311600114614b87579180614b7e9260019695945f926114285750508160011b915f199060031b1c19161790565b90555b01614af2565b90601f19831691845f52815f20925f5b818110614bd6575091600196959492918388959310614bbe575b505050811b019055614b81565b01515f1960f88460031b161c191690555f8080614bb1565b92936020600181928786015181550195019301614b97565b5093505050614c1190614c00816139a2565b614c0a8154613ca9565b905561398b565b614c1b8154613ca9565b9055565b80518051906001600160401b0382116105d957614c40826113dd88546139cf565b602090601f8311600114614c855792614c76836001959460209487965f926114285750508160011b915f199060031b1c19161790565b87555b01940191019092614ab3565b90601f19831691875f52815f20925f5b818110614cd65750936020936001969387969383889510614cbe575b505050811b018755614c79565b01515f1960f88460031b161c191690555f8080614cb1565b92936020600181928786015181550195019301614c95565b835f528260205f2091820191015b818110614d095750614aa4565b80614d15600192614957565b01614cfc565b90601f19831691845f52815f20925f5b818110614d665750908460019594939210614d4e575b505050811b019055614a84565b01515f1960f88460031b161c191690555f8080614d41565b92936020600181928786015181550195019301614d2b565b6001600160a01b037f000000000000000000000000000000000000000000000000000000000000000016308114908115614dba575b50611f8757565b5f51602061517c5f395f51905f52546001600160a01b0316141590505f614db3565b5f51602061513c5f395f51905f52546001600160a01b03163303614dfc57565b63118cdaa760e01b5f523360045260245ffd5b801561068f575f190190565b600181101561154157614e865780602080614e3b93518301019101614517565b8051511561308457610100815151116130485760208101805115612ff5576040820151905111612f9f5760c081015115612f485760e00180515115612f0357608090515111612eca57565b60405162461bcd60e51b815260206004820152601860248201527f556e737570706f727465642070726f64756374207479706500000000000000006044820152606490fd5b805182510361503857600a815111614ffb575f5b8151811015614ff657614ef281836140b6565b515115614fb1576020614f0582846140b6565b515111614f6c576080614f1882856140b6565b515111614f2757600101614edf565b60405162461bcd60e51b815260206004820152601960248201527f4361706162696c6974792076616c756520746f6f206c6f6e67000000000000006044820152606490fd5b60405162461bcd60e51b815260206004820152601760248201527f4361706162696c697479206b657920746f6f206c6f6e670000000000000000006044820152606490fd5b60405162461bcd60e51b815260206004820152601e60248201527f4361706162696c697479206b65792063616e6e6f7420626520656d70747900006044820152606490fd5b505050565b60405162461bcd60e51b8152602060048201526015602482015274546f6f206d616e79206361706162696c697469657360581b6044820152606490fd5b60405162461bcd60e51b815260206004820152602c60248201527f4b65797320616e642076616c75657320617272617973206d757374206861766560448201526b040e6c2daca40d8cadccee8d60a31b6064820152608490fd5b60ff5f51602061519c5f395f51905f525460401c16156150ae57565b631afcd79f60e31b5f5260045ffd5b906150e157508051156150d257602081519101fd5b63d6bda27560e01b5f5260045ffd5b81511580615112575b6150f2575090565b639996b31560e01b5f9081526001600160a01b0391909116600452602490fd5b50803b156150ea56fea16a46d94261c7517cc8ff89f61c0ce93598e3c849801011dee649a6a557d1029016d09d72d40fdae2fd8ceac6b6234c7706214fd39c1cd1e609a0528c199300a16a46d94261c7517cc8ff89f61c0ce93598e3c849801011dee649a6a557d103360894a13ba1a3210667c828492db98dca3e2076cc3735a920a3ca505d382bbcf0c57e16840df040f15088dc2f81fe391c3923bec73e23a9662efc9c229c6a00a2646970667358221220305902c71723c634977cc61f82a27b4bf507d6d158a2ddcd21bf29437cf87e9064736f6c634300081b0033f0c57e16840df040f15088dc2f81fe391c3923bec73e23a9662efc9c229c6a00","linkReferences":{}},"methodIdentifiers":{"BURN_ACTOR()":"0a6a63f1","MAX_CAPABILITIES()":"6e36e974","MAX_CAPABILITY_KEY_LENGTH()":"7f657567","MAX_CAPABILITY_VALUE_LENGTH()":"dcea1c6f","REGISTRATION_FEE()":"64b4f751","UPGRADE_INTERFACE_VERSION()":"ad3cb1cc","VERSION()":"ffa1ad74","activeProductTypeProviderCount(uint8)":"8bdc7747","activeProviderCount()":"f08bbda0","addProduct(uint8,bytes,string[],string[])":"02ff8437","addressToProviderId(address)":"e835440e","decodePDPOffering(bytes)":"deb0e462","eip712Domain()":"84b0196e","encodePDPOffering((string,uint256,uint256,bool,bool,uint256,uint256,string,address))":"82ee4b34","getActiveProvidersByProductType(uint8,uint256,uint256)":"213c63b1","getAllActiveProviders(uint256,uint256)":"2f67c065","getNextProviderId()":"d1329d4e","getPDPService(uint256)":"c439fd57","getProduct(uint256,uint8)":"aca0988f","getProductCapabilities(uint256,uint8,string[])":"a6433240","getProductCapability(uint256,uint8,string)":"1e35bdde","getProvider(uint256)":"5c42d079","getProviderByAddress(address)":"2335bde0","getProviderCount()":"46ce4175","getProviderIdByAddress(address)":"93ecb91e","getProvidersByProductType(uint8,uint256,uint256)":"fc260f7b","initialize()":"8129fc1c","isProviderActive(uint256)":"83df54a5","isRegisteredProvider(address)":"51ca236f","migrate(string)":"c9c5b5b4","owner()":"8da5cb5b","productCapabilities(uint256,uint8,string)":"4368bafb","productTypeProviderCount(uint8)":"e459382f","providerHasProduct(uint256,uint8)":"cde24beb","providerProducts(uint256,uint8)":"6bf6d74f","providers(uint256)":"50f3fc81","proxiableUUID()":"52d1902d","registerProvider(string,string,uint8,bytes,string[],string[])":"15a954e5","removeProduct(uint8)":"a9d239b6","removeProvider()":"b6363b99","renounceOwnership()":"715018a6","transferOwnership(address)":"f2fde38b","transferProviderBeneficiary(address)":"0a1af145","updatePDPServiceWithCapabilities((string,uint256,uint256,bool,bool,uint256,uint256,string,address),string[],string[])":"0b5c0125","updateProduct(uint8,bytes,string[],string[])":"8c9a7b56","updateProviderInfo(string,string)":"d1c21b5b","upgradeToAndCall(address,bytes)":"4f1ef286"},"id":80}